:020000040000FA
:10000000FC2C0020090E0000390E0000230C00001B
:10001000370E0000370E0000370E00000000000011
:10002000000000000000000000000000370E00008B
:10003000370E000000000000370E0000370E0000F1
:10004000370E0000370E0000370E0000370E00009C
:10005000370E0000370E0000370E0000370E00008C
:10006000370E0000370E0000370E0000370E00007C
:10007000370E0000370E0000370E0000370E00006C
:10008000370E0000370E0000370E0000370E00005C
:10009000370E0000370E0000370E0000370E00004C
:1000A000370E0000370E0000370E0000370E00003C
:1000B000370E0000370E0000370E0000370E00002C
:1000C000370E0000370E00002DE9FE4389468046BA
:1000D000284F38684169062088473868416B0620F8
:1000E00088470128F9D13868C1694FF4A060884772
:1000F0000125214E214C356020688008FCD33868EA
:10010000C1694FF480708847356020688008FCD34F
:100110001B4EA6F10C01086820F00F0008600320B8
:100120003060184D184928680022082713460468D3
:10013000CDF800804FF080400197A0471348103859
:10014000006809224FF0FF333946446CCDF8009027
:100150004FF08040A0471C3E306840F00200306005
:100160002868026902A94FF0804090470028F7D123
:10017000BDE8FE83B8010010282008602820084050
:1001800020000040C4010010006CDC02C40100101B
:10019000F8B5104D2868016A4FF480708847012631
:1001A0000D4F0E4C3E6020688008FCD32868016A21
:1001B0004FF4A06088473E6020688008FCD3286820
:1001C0008169062088472868416B062088470228F5
:1001D000F9D1F8BDB8010010282008602820084097
:1001E000BCB50F460546B7B10C4C206882680021AB
:1001F0004FF08040904710B94FF0FF300CE020687E
:10020000C26869464FF0804090479DF80000287012
:100210006D1C7F1EE9D10020BCBDC046C40100108A
:100220007CB50C4606467CB1084D2868317842689A
:100230004FF0804090472868C26869464FF0804080
:100240009047761C641EF0D100207CBDC4010010D4
:100250001CB5054C2068026969464FF08040904704
:100260000028F7D11CBDC046C40100102DE9F041A3
:10027000424C464D8046C8F38140401E02D0401E8D
:100280002AD025E0284620300168880C20D24FF47F
:10029000804020603A48D0F802204B0AC1F303376F
:1002A00003F0800322F08F02134347EA0302C0F8F1
:1002B0000220D0F801300E1266F30303C0F80130BB
:1002C000026801F0E70722F0E70247EA020102E0D4
:1002D0004FF00041204601602F4E301D0068C0F3F2
:1002E000C0070FB94020A0624FF40070206400F0F6
:1002F000F1FB40F0300084F8C800C8F3815040B3EF
:10030000401E03D0401E1FD002211EE0012000F03D
:100310000BFB07460420394600F062FA042000F087
:1003200003FB8742FAD1361F366826F07F4000F083
:10033000CDFA14480068036807214FF06022300EA0
:1003400098474FF4806020600321042000F048FAB1
:1003500006E00420012100F043FA0B4800F0B6FA51
:10036000284600680A4947F6180700F03F0084F85D
:10037000CB0F084E0F803068BDE8F08140A00C40E4
:100380000A600840B4010010BD3786006C130050AD
:1003900070B00C402C200940AC3F00507CB50546A5
:1003A000084600F0E9F9364E02461821304600F0C2
:1003B000A5FA00F02DFB3449103909684C6840F269
:1003C000FF32002380B22C2100903046A04700F07D
:1003D00089FB1C210246304600F090FA00F00AFB2F
:1003E00002461421304600F089FA00F037FB02463D
:1003F0001021304600F082FA284600F089F90246C2
:100400000C21304600F07AFA284600F00FFB1D4C14
:10041000400040F020002070284600F013FB40F020
:1004200010002070284600F0ABFA02462821304622
:1004300000F064FA284600F01DFB400040F0600028
:10044000E070284600F022FBC00040F0800004F875
:10045000080C284600F026FB800040F47C40A4F8FD
:100460009300284600F076FA02460821304600F054
:1004700045FA4FF48000A4F2091108607CBDC04623
:1004800000A00C4049A10C40B4010010274A2DE9FE
:10049000F04180460125264815600768002FFCD0F2
:1004A000244CC02025492060081F03689B0806D201
:1004B00050F8040C204B000C40F0F00018700020A5
:1004C00010630E68304600F097F840463146FFF75B
:1004D00065FF1B49886D40F21E226FF31F40824268
:1004E00015D90868020E12F00F0F02F00F01C0F3C9
:1004F000034018BF491E072805D006280EBF072055
:10050000801C00F00F0041EA00110E4801703046D7
:10051000FFF7ACFE0C480068C16802208847402005
:1005200020600A4F3D60BDE8F081C04610100940D0
:100530009402224300600C4056620840B43F0050D1
:10054000BC12005002600840A001001094046042F8
:10055000264838B560300468B4F1FF3F08BF002476
:1005600000F0ACFA2248234B002501211038056029
:1005700003F15C0001601448016000F061F9134868
:10058000006820B1124800682046FFF77FFF11483D
:1005900011490560114C0A686FF35B4244EA02009E
:1005A00008600F490868C0F30130012806D10A68C5
:1005B0000C48104040F400320A6008600A4908689C
:1005C0000028FCD138BDC0460822044380012843DE
:1005D000000120438C2108404820034000003901DD
:1005E00004000940FFFFFCFC0C006842BC120050F4
:1005F0009404604200600C4070B5234C234D0646C5
:10060000B00E11D2700E0FD3802020744FF6D80197
:10061000A4F85110207000F041F8D0352868C0F3DC
:100620000420162806DB04E02868C0F304601628BE
:1006300000DB203800EB2670401C162805DA10F18C
:100640000A0FB8BF6FF0090000E01520104D00F050
:100650001F0040F4F850A4F859002868800803D21D
:100660000C490020086001E046F040660A49F00E9F
:10067000B50E80F0010000F00100086085F0010077
:1006800000F00100886070BD15620840B81200508B
:100690000000094094042A4300002043184870B524
:1006A0000068C0F304601628A8BF2038154B014627
:1006B000187800F01F001628A8BF203881421ED0ED
:1006C000114E124C0022012532600A1A022A05DC62
:1006D00012F1020FB8BF6FF0010200E00222101801
:1006E000226800F01F0242F4F852A3F8662081420B
:1006F0002560EAD12068256020683560206870BDDB
:100700008813005006620840980020432C200940BE
:1007100038B51849164D0446143909686868C1F39C
:100720000342C1F30353400812D22868050513EBB6
:10073000257303D4102BA8BF0F2300E0002300046F
:1007400012EB207203D4102AA8BF0F2200E000226F
:1007500042EA031201F47F4001F0FF03222C40EA39
:10076000024243EA020024BF01F08041084338BD41
:10077000AC3F00508C1300500146184880B53C38FF
:1007800000688A0CC0F38367C0F38F2022D241F344
:10079000072100290BD54A420021400805D17F08D6
:1007A00006BF0127381C4FF6FF70521EF5D10029F5
:1007B00010DD4FF6FF72400040F00100824207D288
:1007C000780040F001070F2F92BF01200F27101C67
:1007D000491EF0D140EA074080BDC0468C1300504E
:1007E0002DE9FC41144C154F06468846700809D384
:1007F00020684568002101220B461FFA88F000900E
:100800003846A847B00809D320684568002102226D
:1008100001231FFA88F000903846A847F00809D352
:1008200020681FFA88F600210C22022344680096F3
:100830003846A047BDE8FC81A401001000A00C4090
:100840000F4908680028FCD1104A131D0D4918688B
:1008500020F0030001430C480068C0080CD2106867
:1008600010F0030F0AD041F003001860106800F088
:1008700003000328FAD101E041F00101196070473B
:100880000C00684204000020B03F005000400340CC
:100890000D4908B5D1F878020B68020F03F0FF0389
:1008A000802B28BF002300F07BF801464FF0FF307B
:1008B000012907D1111C04D0891E04BF143358B27A
:1008C00008BD0A2008BDC046A01000500949020416
:1008D00080B5120C41F8082CC0F3074041F8040C15
:1008E0000120086004480768002FFCD00020086041
:1008F00080BDC04644600C4084088C43B0B51546AA
:100900000C1800F0F7F8002700B90127054A39460E
:1009100010680028FCD025600120106009B100F0AB
:10092000EFF8B0BD00800C4002460849084810B5F9
:10093000042A07BF4FF0C0421D234FF080521C23F2
:100940000968CC683421A04710BDC046A40100103E
:1009500000A00C40202838BF07480CD307480C30B3
:10096000016808038215920500F47C1001F00F0164
:10097000104340EA0130704700803F408C13005024
:10098000202838BF002008D3044810300068C10C6C
:1009900001F44071C0F3845008437047881300503D
:1009A000054800684BF6BE110001B1EB104F14BFB3
:1009B0004FF0FF30012070471813005008B5044B6A
:1009C0001B689B699847034A0021116008BDC04617
:1009D000A801001084046042044908B50968496907
:1009E0008847034A0021116008BDC046A8010010D5
:1009F000840460420548183801680348084001F043
:100A00007C4108437047C046FCFCFC008C1300503E
:100A10000549383908680968C0F3870001F0030107
:100A200040EA01207047C04688130050222804D3B2
:100A300003480068C0F30070704701207047C0464B
:100A40008C130050222804D303480068C0F3407080
:100A5000704701207047C0468C13005004481C3872
:100A6000006800F47C010004000C08437047C04695
:100A70008C130050202805D303480C300068C0F3C5
:100A800001507047002070478C130050222804D377
:100A900003480068C0F3C060704700207047C0463C
:100AA0008C130050222805D30348001D0068C0F3B2
:100AB00045507047002070478813005008B5FFF775
:100AC0006FFF012803D1FFF7E3FE142800DAFEE7E9
:100AD00008BD00000248001D0068C0F3C140704717
:100AE0008813005002480C380068C0F30D007047AE
:100AF00088130050EFF3108072B6704700207047E3
:100B0000EFF3108062B6704700207047002A4AD089
:100B10005FEA000C8B071CD1830722D1102A08D36F
:100B200070B4103A78C978C0103AFBD270BC103259
:100B300038D0042A2CD3082A05D30C2A24BF08C98C
:100B400008C008C908C008C908C092072AD0920F77
:100B500022E00B780370491C401C521E22D08B07E8
:100B6000F7D1C30714D18307D8D0121F12D308C9F5
:100B700003801B0C4380001D121FF8D20AE008C935
:100B800003701B0A43701B0A83701B0AC370001D8D
:100B9000121FF4D2121D05D00B780370491C401CA3
:100BA000521EF9D160467047002213460A46194684
:100BB00071B510F0030F0BD0002A82BF00F8011BA3
:100BC000B2F1010210F0030FF6D1002A08BF71BD87
:100BD00011F0FF0141EA0121042A18D341EA014141
:100BE000082A0FD30E46102A08D30C460D46B2F140
:100BF0000F0312F00F0272C0103BFCD812F0080F66
:100C000018BF42C012F0040F18BF40F8041B12F0C6
:100C1000020F18BF20F8021B12F0010F18BF01705D
:100C200071BDFEE71448B0B5B0F1FF3F01D000F050
:100C30008FF8124D1248A84210D01248124CA04210
:100C40000CD0001BC71054F8040B10F8011B55F80A
:100C5000212054F8041B90477F1EF4D100F0EEF8D9
:100C60000A4D0B4CA54205D002E054F8040B804716
:100C7000A542FAD1B0BDC046FFFFFFFF840E0000C1
:100C8000900E0000A80E0000980E0000000000006A
:100C900000000000F8B5844640F6FF741CF8013BE4
:100CA000002210E0481B401E10F8015B7F1E01F877
:100CB000015BF9D103E01CF8010B01F8010B521C98
:100CC0005B08082AEADA5808F5D21CF8010B1CF870
:100CD000015B05F00F07FF1CC5F30315122F45EA52
:100CE000001508D11CF8016B300A24BF1CF8010B59
:100CF00060F3DF16F719AC42D4D1F8BD00BF7047DE
:100D000008B5FFF7FBFFFEE738B50D4C0546A068B8
:100D100020B10C48B0F1FF3F00D080470A4800687E
:100D20008047606810B1014628468847206800B1B6
:100D30008047064800688047FFF7E2FF38BDC0469D
:100D400014100020FFFFFFFF2010002024100020BF
:100D5000F8B506460F4D104F7388002417E0A00029
:100D600000EBC400321851689068D26852B9AF42A3
:100D70000BD00A7855F822200346491C084619462C
:100D8000904701E0FFF7C2FE7388641CA4B2A3423F
:100D9000E5DCF8BD840E0000900E00000C4885468E
:100DA0000C4885446F4607208743BD460A486F4676
:100DB000076000F042F800F03CF8002801D0FFF78F
:100DC00031FF00F00BF80120FFF79EFFFEE7C04661
:100DD000FC2B0020000100002C1000200449B1F180
:100DE000FF3F07BF0020011C0868091D1EF030BA34
:100DF000FFFFFFFF0349086070470249091F0860B1
:100E0000704770472410002008B5FFF7A1FBFFF7DB
:100E1000C5BFFFF706FF08BDD0F80320C31D084675
:100E20001946FFF773BED0F8032008460021FFF7EC
:0E0E3000BFBE01207047FEE7FEE77047704727
:100E400000002000C215000000001000C2140000C5
:100E500000000800EF12000000000400EF11000085
:0E0E6000000000000000000090FFFF000506EB
:100E70000035000004010080030E0033013500FF3F
:100E8000F0000000950C0000190E0000270E000075
:100E90000200000014100000700E0000141000206A
:080EA000900E0000000000208C
:10100000FFFFFFFFFFFFFFFFFFFFFFFFFFFFFFFFF0
:1010100010410020A98D000095AB000095AB0000A9
:1010200095AB000095AB000095AB000095AB0000C0
:1010300095AB000095AB000095AB000095AB0000B0
:1010400095AB000095AB000039B0000038B50546FF
:101050000AF002FD2C680CB1216829600AF0D4FC6A
:10106000204632BD70B505460E462C680020306023
:101070001CB90AF0F1FC2E600DE00AF0EDFC00E076
:10108000246821680029FBD1B44203D10AF0BCFCDA
:10109000002070BD26600AF0B7FC012070BD70B55D
:1010A00004460D460AF0D8FC2A680026014642B1E3
:1010B00000E01268D068A042106808BF16460028F9
:1010C000F7D108460AF0A0FC304670BD0021282266
:1010D000DFF88C0B4A43104490F82720130603D501
:1010E000491C0829F3D30020704730B5014600227F
:1010F0002823DFF86C0B5343184400F12403DC78F9
:10110000250603D5B3F900308B4203D0521C082AC0
:10111000EEDB002030BD38B504281DD1DFF8444B8C
:1011200004F1E40528460AF0B9F9A8B128460AF006
:1011300089FCDFF8341B0A68504364280CD2284627
:101140000AF086FC052008F063FF0120E077042107
:1011500004F144000AF09AFC002032BD70B500F0A2
:1011600030FADFF8085B064695F8340020EA0404FC
:1011700085F834400024286820B19C300AF08EF9AC
:1011800000B10124686820B19C300AF087F904435B
:101190001FD195F83400002808BF002C19D1A86A87
:1011A000D0B190F820108A0707D5C46900F005FB7C
:1011B000A86A00220221A04708E0446900F0FDFA75
:1011C000A86A00224FF400030021A0470020A86273
:1011D00070BD304601F00CB970BDF8B500239E46D5
:1011E0000AB94FF0010E002600291CBF0D6A002D20
:1011F0006FF05047DFF874CA19D0C469BCB1C96830
:10120000C368994207D0DCF8003099420CBFDCF883
:101210000860DCF80C60A408A4EB9504A61BBE4291
:1012200029DA06F18056B6F1805F24D90123002A1D
:101230001CBFD469002C1BD0016AC9B1D268C06838
:101240000026904207D0DCF8000082420CBFDCF898
:101250000860DCF80C60C6EB9406A6EB9106BE4273
:1012600009DA06F18056B6F1805F04D94FF0010E1D
:1012700003EA0E00F2BD0020F2BD884201D3002037
:101280007047012901D101207047022070472DE9E4
:10129000F843DFF8D04907468846A26A00200026B6
:1012A000012162B1A36ADA68BA4208D1A26A92F84F
:1012B00026004146FFF7E1FF002100B1A66A626AFD
:1012C000AAB1656A81460FE0E868B8420BD195F88B
:1012D00026004146FFF7D1FF002118B1B9F1000FF8
:1012E00001D12E4681462D68002DEDD1484609B129
:1012F000022029E0002818BF002E24D0A26AD3685B
:101300003146BB4204BFA26A914204D1A16A00F0F7
:101310001DF8616A31B1CA68BA4201D100F016F80D
:101320000968F7E7DFF8441901F132028F62CF62F2
:1013300000F00100937843F001039370B38C1070B8
:101340000B86012000E00020BDE8F28391F8272001
:1013500042F0080281F8272070472DE9F14F8AB04A
:10136000DFF8C87ADDF85080DFF8F868002078737D
:10137000894688F800009346B6F93810B6F93A0065
:10138000091AC1F30B0108299A464CDA348F641C00
:10139000C4F30B042046FFF799FE0546AC84386879
:1013A0000A99884205D1387BC10744BF00F0FE008E
:1013B0003873DAF8000028629BF80C0000F00F0088
:1013C00002280CBFDBF808000020B9F1000FE8612B
:1013D00025D009F19C000AF061F800285AD10A983A
:1013E00006F12401FFF75BFE040021D1706AF8B119
:1013F00001F0E1F90890B06A20B1726AB16A00F0B8
:1014000055F838B9B06A98B9726A69462846FFF744
:10141000E4FE68B1706A286075620120787328461E
:101420000BB0BDE8F08F012088F800000020F7E73E
:10143000787B0028F3D114B9746A00E024685CB3A7
:10144000226800F032F80028F8D020682860256073
:101450000220E3E7787B0028E1D1746A24B100E040
:10146000246820680028FBD19BF80C1001F08F0144
:101470000229D4D12CB1002200F017F80028CED1D7
:1014800008E0B06A0028CAD0B16A002200F00EF865
:101490000028C4D10220C7E79AF804104846FFF795
:1014A000F6FE0128D6D10420B8E72146284694E666
:1014B00070B5002009F0FEFADFF8A8470FF281416D
:1014C000002204F178000AF0CDFA09F055FFD4E9C2
:1014D0000023801A9941000B40EA0150E060DFF8D8
:1014E0005059E87D30B1217CE068C902814201D3C6
:1014F000A87D58B30020A8750121E975DFF83409EB
:1015000001680A0622D540F6090028800021687B80
:10151000696000F05FFC6873287B00F0F0002873BE
:101520000AF09AFADFF810194A6922F002024A61B9
:101530006FF002020A610D600B699E07FCD50A611B
:101540004A6942F002024A610AF05EFA0020C4E9E8
:101550000000E06007F04CFF687D20B9E16B01F10D
:1015600040000AF08BFADFF8981B0020086070BD7D
:1015700010B500F026F8DFF8B8180A7D14430C7592
:101580000AF042FA832010BD10B500F01AF8DFF817
:10159000A028117D19B90AF037FA012010BD117D7C
:1015A00021EA04041475117D39B90AF02DFA0821D5
:1015B000DFF8500B0AF06AFA01E00AF025FA8320FE
:1015C00010BD04460AF048BA10B50446207B00F06E
:1015D0000F00022822D101F0EEF8A168DFF884267E
:1015E000081AD16B8008002914BFC96840F6C411DD
:1015F00001F57A73834238BFB0F1405F0ED2401AD2
:10160000DFF864160B68B0FBF3F1012998BF0121E4
:1016100002F1E4000AF018FA012010BD002010BD0C
:1016200038B50446DFF83C56E068E96B884218BFDD
:101630004FF4806137D1A068FFF7C6FFA8B1286BCF
:10164000E1684A681378022B00D170B90120FFF7D6
:101650009BFF83282AD1E86B78300AF0F9F905F16D
:10166000E400BDE832400AF0F1B9D4E90401DFF842
:10167000C8275369034353610020D3680B43D360E9
:10168000D061A0681060D0690028FCD005F124006A
:10169000FFF7DCFCAC62A86AC16848680278022ADD
:1016A00004D14FF4004105F14400E1E231BDDFF81F
:1016B000B405C16B8A6801F12803506830B19842C3
:1016C00018BF0246F9D101E000207047507B10F0AE
:1016D0000F0F02BF488D40F609018842F4D1012066
:1016E000704738B5DFF8801BDFF8800B0C68DFF837
:1016F00074550440E0430860A00606D5486881069A
:1017000003D54FF4005100F0FFFC14F4602F0DD00E
:10171000DFF85C0B816904F460240C43846105F1FB
:101720009400BDE8344000210AF0B0B931BD70B575
:101730000AF092F9DFF8384B0646A06910F4602FE2
:101740002FD0A569ED012D0EE80748BF002506D46E
:10175000A80748BF012502D4680748BF0225681DB5
:10176000002140B200F020FEA169012205F1110024
:1017700082409143A16100F020F804EB8506F068F7
:1017800038B154F82500691DF56800224FF0006358
:10179000A847DFF8E01A086828B90220FFF7F4FE2E
:1017A00001E000F00AF8A06930B1BDE87040002106
:1017B000DFF89C0C0AF06AB970BD30460AF024B913
:1017C00070B5DFF8A05409F0C9FCAC6A002C0246E1
:1017D0005DD012F00A0F4BD00020A862D4E90401BA
:1017E000A36940F00A0632401A43A261DFF8846A16
:1017F000B2688243B2603268D4E904018A4332603D
:10180000214600F0B9FE00F0BBFE286B00283ED058
:10181000E16848680278022A39D194F82700C107A4
:1018200005D5286B90F8271041F0010108E094F8E5
:1018300027008107286B0BD590F8271041F0020193
:1018400080F8271005F13400296BFFF70BFC0CE042
:10185000A8622A6BB368D2E904010343B3602A6B20
:101860003368D2E904010B43336000222A630EE09F
:10187000D4E9040102420AD0EC62D4E90401A3696C
:1018800002401A43A2614FF4804100F03DFCA86A77
:1018900020B9686A10B1BDE87040C1E670BDDFF8DC
:1018A000C403B0F93810B0F93A00814204BF0120F6
:1018B000FFF76ABE7047072050E4F8B507461446A4
:1018C000BE6E1D4606B1B047A0070ED4D7E9180179
:1018D000204029400022914208BF904205D17A68F9
:1018E0001078022809D1210707D5C7E91C4507F15F
:1018F0004000BDE8F2400AF0C1B8F1BD704780B5C4
:101900000AF0C2F8DFF85C230146D06B126CBDE828
:101910000840104780B5DFF84C030FF22152016CEC
:10192000914207D10120FFF723FEBDE802401920B4
:101930000AF096B8BDE80440042144300AF0A6B885
:1019400070B584B009F00AFCC64E0FF2F1410546AD
:10195000306C88422AD10022DFF8F81ADFF81049EB
:1019600006F178000AF07EF801203076FFF700FEDD
:101970000020B0764FF6FF71A08B884208D102217B
:10198000ADF80010684608F0D1FEBDF80800A0834D
:10199000B06A40B9746A34B1FFF789FE30B92046A5
:1019A000FFF73EFE02E0022101F0DBF8DFF8C00B9A
:1019B000054203D04FF0005101F0D3F87FBD80B550
:1019C00009F0CCFB800707D5BDE804404FF48051F7
:1019D000DFF830070AF05AB801BD10B5A14C014636
:1019E000E06B4268506838B1012908BF08F06EFD0D
:1019F000E06B416848688047E06B42689068002867
:101A000004BFD168002914D0DFF8681B08680028DB
:101A1000FAD000230B60906800B18047E06B40680B
:101A2000C06800B18047BDE81040DFF85C0C08F0EA
:101A30007DBE10BD70B5040077D0A16820200029BC
:101A40001CBFC2B2002A00F088800A8840F6030357
:101A50009A421FBF40F604039A424968401EEED1E5
:101A600076E094F82710002301F00701012907D040
:101A7000022909D0042904BF00224FF0805306E058
:101A800000224FF0005302E000224FF0804394F810
:101A900027100D0706D594F8271011F0070F18BF6F
:101AA00043F08073B4F924106568A84709F0D4FFA7
:101AB0006C4E0546708F401CC0F30B0070870020F1
:101AC000716B81F8270006F13400FFF7BFFA01F0CF
:101AD00039F901F0FDF83AD1E26892F8C200052127
:101AE00000B107210846FFF739FB6048E368026848
:101AF000934208BF426893F8C200002100B91968F8
:101B0000002583F8C2504AB192F8C20010B182F8A1
:101B1000C25003E01068884228BF014619B9BDE8E9
:101B20007040012030E511F1010F10D04E480268DD
:101B3000E068B1FBF2F1022938BF0121783009F0E9
:101B400083FFE068BDE87040783009F07FBF70BD6A
:101B5000E0681822283005F0CDF8A2690020A061C5
:101B600060680028A2D0E06841680B78022B18BF9B
:101B700042F0020275E738B50D46A807394C16D574
:101B8000606BFFF757FF606B25F0020510B145F061
:101B9000020109E0680702D4606A00285ED004F1FF
:101BA000E40009F055FF042104F1440060E06807F7
:101BB00054D5012084F82000042008F029FA09F007
:101BC000DBFBC4E90001606A78B1C568E06B0028FE
:101BD00018BFA84208D095F82000410704D5EB694A
:101BE0000022042128469847E563E06B4168DFF84E
:101BF000BC0B0A780260022008F00AFA112004F0F7
:101C00007FFE0120E16BA076087C00281EBF88497A
:101C1000C87D002804BF0E2004F072FEE06B864AE7
:101C200040688168002904BFC068002804D00021F2
:101C3000D161DFF8CC0B106040F2FF70DFF8C01408
:101C4000086000219161DFF8EC0C50610FF229006F
:101C500020641920BDE8324009F000BF31BD00000A
:101C600058210020982200209C1D00208C25002057
:101C7000BDE8344009F00ABF2DE9F043054688006D
:101C800085B040F193800020FFF7A7FE6A4EDFF891
:101C9000740BDFF8749B664F0021F161306040F6F1
:101CA0000A08012008F006FF0FF29110C9F8400061
:101CB000A7F80080002078800021387B00F0F00039
:101CC00038737960787B00F085F87873AA681446D9
:101CD0006180F97D09B1687CA0B1108840F60201ED
:101CE000884218BFB0F5C15F05D1218A4FF60F4079
:101CF0000140218204E0218B4FF60F4001402183F7
:101D0000002068746946104604F06EFA684609F0CF
:101D1000FDFB40F6040140F60302606800281CBF8A
:101D20000388434518BF934243D08B4218BF0446F3
:101D3000F3D13EE0288DA8B100216985E96205F163
:101D400034004278017802F0F00201F0F00142F034
:101D500001020170427005F128007860787B00F084
:101D6000F00078734FF6FF30A9680A8A02400A82B1
:101D7000F0690028FCD00021F16199F81F0030B112
:101D800007F054FB0028FBD007F06EFB0CE00120AD
:101D900008F086FB012807D0607B00F01BF8607319
:101DA0000FF23D00C9F84000A868306005B0BDE8FA
:101DB000F0836760607B00F0F0006073D9F8240066
:101DC00080680088904218BF8842B3D10020C9E9DA
:101DD0000000C7E700F0F00040F00100704700008D
:101DE000DFF8542B114200D17047012010B508F0E4
:101DF00057FB0128DFF8104A06D10FF241010C48C9
:101E000021640D49086010BDDFF8302B10683221C5
:101E1000B1FBF0F1012998BF0121E434204609F01B
:101E200013FE2046BDE8104009F010BEB425002086
:101E30000426002000000440001004402DE9F84F63
:101E400006460C466004DFF8C0591CD509F004FEB4
:101E5000EF6ABE69B10711D487B10021B96109F0F9
:101E6000D3FD7868002818BF002E09D0B7F92410D8
:101E7000F86832467E680023B04701E009F0C4FDEF
:101E800024F4804431E1A0006FF4807940F6020729
:101E90004BD595F8200028B1042007F029FE00203A
:101EA00085F8200009F0D8FD8046B0680188B94265
:101EB00018BFB1F5C15F00F033F9D5E900AB0020E0
:101EC000834508BF824518D0042008F0E9FAA0B184
:101ED000D5E9007109F050FA874228BF401EC71BA0
:101EE000708A10EB1737F76040F2D170A7F5FA77D8
:101EF000874224BF40F6C410F06001F017F9FFF7E5
:101F0000D6FB40B100F004F9686A10B100F018FD8A
:101F100001E044F002043046766900224FF080630D
:101F20000021B04724F00054DFE0A0070AD5686B19
:101F3000FFF780FD686B002824F0020401D044F014
:101F40000204D2E060051CD509F086FD6E6A0746E2
:101F500096B1E86B10B1783009F07AFDF068E8636B
:101F600000F026FC09F008FAA8604FF400610FF2B7
:101F7000CD10286400F0C8F80020687724F480644D
:101F8000B3E0687F24F00808B8B1210712D4A86A2A
:101F9000A0044DD5AE6A002E1CBF7068002806D084
:101FA000B6F92410F068766800222023B04724F4A4
:101FB00000549AE00020687738E0A86A10B1210741
:101FC000E6D533E02007E3D5002028760120E87627
:101FD000DFF87C0B2864FFF76BFA022007F088FD1E
:101FE000112004F0D3FBE96B087C10B90E2004F03B
:101FF000CDFBE87F20B10021E977052007F078FDCF
:102000000020E8762877687E30B10021697605F1F6
:102010004400042109F03AFDB5F93A10B5F9382029
:102020000220914208BF0720FFF798F844465CE081
:10203000E00436D5FFF73BFB08B100F069F8002259
:10204000DFF8101405F1780009F00CFD0020A877E6
:1020500001202876B0680188B94218BFB1F5C15F88
:1020600000F05EF80020707409F086F9DFF81C2695
:1020700013680746E86B04219842A86808BF00214E
:1020800040B1B84232BF3F1A401EC71B02F10800E0
:102090003F0B47500020A86024F4805400F050FC0F
:1020A00023E0200421D5686AE8B150F80C1F4A6883
:1020B0001378022B17D1C07EC10614D4A86A90F8F9
:1020C0002700C1060FD5A86A816848880028FAD081
:1020D000A96A886841880129F5D0A86A2863002088
:1020E000A86200F02DFC24F4004434B1214605F12F
:1020F0004400BDE8F44F09F0C9BCBDE8F18F000011
:1021000000000460DC22002005F1440009F0BEBCA0
:102110004946D6F8189000224FF0007330464847E1
:1021200005D1028A2D2161F3091202827047028BC8
:102130002D2161F30912028370470000F0B50446B7
:10214000080585B07DD5DFF8C06600203076012017
:10215000B077F06B90F820104A0703D5C3690022CE
:10216000042198470022DFF8F41BDFF8F45B06F146
:10217000780009F077FCDFF8040C3064F06B4068FD
:102180008168002904BFC068002804D00021E961EB
:10219000DFF86C0628600120FFF71FFC0020E861D3
:1021A00040F60202DFF85C0628600020A168488043
:1021B0000888904218BFB0F5C15F05D10A8A4FF672
:1021C0000F4002400A8204E00A8B4FF60F400240A3
:1021D0000A830120607440F6040240F6030340F6CF
:1021E0000A0C486878B3078867451CBF9F4297422E
:1021F00029D00146F5E7208DA8B100226285E26270
:1022000004F134004378027803F0F00302F0F002A6
:1022100043F001030270437004F128004860487BDA
:1022200000F0F00048736946A06803F0DDFF6846DF
:1022300009F06CF9E8690028FCD00021E961A06888
:10224000286005B0F0BD00204860487BFFF7C2FD64
:102250004873706A80680088984218BF9042CAD15B
:102260000020B060DFE700000810044020000E00EE
:10227000C42500200C10044030B585B003F08CFA62
:10228000DFF8380BDFF8385B0168DFF87C4541F098
:1022900002010160684609F041F9A878DFF8241BC3
:1022A00002906A4604F1440007F01AF9684609F002
:1022B0000DF92978DFF8F82B019100208DF808003E
:1022C0006B46192104F1780006F0BEFE684609F05D
:1022D00025F9E878DFF8DC1B02906A4604F19400E7
:1022E00007F0FEF8684609F0F1F801208DF80800C3
:1022F0006B466878DFF8C02B01901A2104F1C80002
:1023000006F0A2FE00230022DFF8B01B04F1E40077
:1023100006F036FBDFF83808DFF8A42B2064002332
:10232000042104F5847008F015FADFF8140C4FF658
:10233000FF71818300220021C177DFF8080CC1758D
:10234000C4E900216183A183A1770521217402756D
:102350004FF4FA71CD488160C160E27784F82020A3
:1023600005B030BD10B5818B4FF6FF72914209D098
:102370000024012202FA04F3194206D1641C64B25B
:102380000F2CF7DB6FF0010010BD9943818304F13E
:102390000C00DFF8481C0B6882401A430A600220D8
:1023A000FFF7E6F8204610BD70B506460C4609F06A
:1023B00053FBDFF88C1B0546C87F420702D58A7F96
:1023C000964214D001228B8B02FA06F00343DFF809
:1023D0000C0C8B830C36016802FA06F621EA06061D
:1023E0000660006818B914B10220FFF7CDF828463E
:1023F000BDE8704009F008BB70B5012A05460C46DF
:10240000DFF8046414D18CB1E068A84212D12068CE
:10241000706206F1340094F8271041F0040184F84A
:1024200027102146FEF71EFE746AECE770BD246893
:10243000002CFBD020680028F9D02168C868A84289
:10244000F5D100F0A5F806F13400FEF70BFEF1E738
:102450002C230020C11700002DE9F84FDFF8A85306
:102460006C6A80460E460327934609F0F5FA16F18A
:10247000010F0BF00109824608D1A86A00B3A96ACE
:10248000C86840451CD1A86AB0F924603046FEF700
:102490002CFE00285CD0A96A88420BF002062AD1E3
:1024A00090F82710012202FA09F2114380F8271050
:1024B000B9F1000F14BFDFF8B80BDFF8680C0EE0BD
:1024C00009F0CAFA6E6A00E03668002E45D0F1685D
:1024D0004145F9D109F098FAB6F92460D6E708F039
:1024E00025F926B1696A01224046FFF785FF00F011
:1024F0004CF883272EE0844205F1E40213D1104604
:1025000009F0A6FA686A00686862214694F8270014
:1025100040F0040084F8270000F02EF8A6B1696AA4
:1025200001220EE02468DCB121688142FAD1104614
:1025300009F08EFA00F02CF800F01EF826B1002207
:1025400021464046FFF758FF00F01FF8832709E0B7
:1025500000F01BF83846BDE8F28F09F055FAF7E7AE
:1025600000F013F8A87E0028F4D100F009F8F1E794
:10257000020000401C10044005F13400FEF772BD5B
:10258000022105F1440009F081BA504609F03CBA35
:1025900021680868206091F8270040F0040081F865
:1025A00027007047F0B500298BB0064615461C463B
:1025B00067D0DFF8740B00680A78D040C00760D598
:1025C000002D71605DD00021284603F079FEB560D2
:1025D00009F042FADFF86C790546787D02284EDA78
:1025E00008B9FFF749FE787D284941F82060401C72
:1025F000787500F0A7FB34B903A80FF2F8611C222C
:1026000004F078FB03AC2068DFF8E81B30600A4672
:102610006068F0600B46207C3074A0693062012055
:102620007074608A7082E06800B10246B2616069CD
:1026300000B10146F161A06800B103467361A021B9
:1026400006F1280004F024FF002106F1400007F005
:1026500069FF684609F0A8F902966B460022DFF888
:10266000981B06F1780006F08BF96B460022DFF824
:102670008C1B06F19C0006F083F9304602E000F066
:1026800061FB00200BB0F0BD010007068C25002087
:10269000F8B5DFF8B0580446687D002800F0848063
:1026A000594E00F00FFB15D006F124012046FEF72D
:1026B000F6FC30B9B06A68B1B16AC868A04209D105
:1026C000B06A38B1B0F9241002224FF0E04320463E
:1026D00000F055FA09F0C0F90746DFF8240B01684D
:1026E0008C4207BF0021016000214160687D401ECF
:1026F000687504F19C05C0B2002842D1307EF463B5
:1027000080B10120FEF740FF0220FEF73DFF00F000
:102710004FF84FF0FF3104F1400008F0A4FE09F03B
:102720009BF9074606F1440009F0AAF906F1780082
:1027300009F090F906F1940009F0A2F906F1C80039
:1027400009F088F906F1E40009F078F90020F06357
:1027500000F02EF804F1400009F08EF904F1780041
:1027600009F06CF9284609F069F906F5847008F05B
:10277000D1F9207C012817D1BDE8F2400E2004F0E9
:1027800005B8F06BA04208BFF16300F011F804F146
:10279000400009F071F904F1780009F04FF928467A
:1027A000BDE8F24009F04AB9F1BD0000D02108406F
:1027B000384609F029B970B509F04EF9124A117E70
:1027C00031B1DFF8402A146809F01EF9204670BDC7
:1027D00009F01AF908F0D0FD10F50030DFF8282ACA
:1027E000DFF8606741F10001A2FB004502FB0155E3
:1027F00031690020221845EB0103184670BD000026
:102800005100070601010E04982200202DE9F84F1F
:1028100004460F4616469B46DFF8F05909F01CF9AE
:10282000B5F938108146B5F93A00091AC1F30B0120
:1028300008296FF0010840DA288F401CC0F30B0014
:102840002887B5F93800ADF80000FEF73FFC824656
:1028500004F1780009F0FCF8CAF8087020210AF1A8
:1028600026073E70CAF804B0BDF80000AAF824009C
:10287000CAF80C40DDE90A62DFF8940930401140E3
:10288000CAE9040104F1C0060020787040F6FF7424
:10289000686A0028514605F1240006D0FEF7E2FBE5
:1028A00030B100F050F8484637E0FEF7DBFB40B9A6
:1028B000288F2418C4F30B042C8700F045FB4046F6
:1028C00036E000F040F8297F00291CBF287E002850
:1028D00003D0012100206977287700F035FBA96A31
:1028E00021BB287E28B10120FEF742FE00F028F827
:1028F0001CE0A87ED0B909F0AFF80446E87E10B11C
:102900000121697608E0DAF80800FEF75DFE38B1CB
:1029100005F1E40009F09AF8204609F075F805E0A1
:10292000204609F071F80421FFF7EEFBBDF9000025
:10293000BDE8F28F0A000040040000209C1D00202A
:10294000192009F08DB8BDF800003080002178789A
:1029500040F080007870B17070472DE9F04FDFF8DB
:10296000A05885B081460F4614469A4609F074F87F
:1029700029688046894508BF696801A803940090CA
:102980003A46039B4846FEF7E8FC040005F1320096
:1029900002900ED18178C5F8289041F00401817031
:1029A00000F0C4FB9DF80400022862D16FF0020021
:1029B000CBE009F1780009F04BF8DFF85068A08C03
:1029C0003087B4F92400ADF80000A76004F12607B1
:1029D00003980179DFF838083970C4F804A0C4F806
:1029E0000C90DDE90EAB20210AEA00000BEA0101A0
:1029F000C4E9040100207870E06841680A78022A7E
:102A000002BF03984179012903D1787840F0100082
:102A1000787000F08BFB0298C178042905D1027808
:102A2000B5F93010E86A00F05BF909F015F8804656
:102A30000298C078002818BF042809F1C00529D1E0
:102A4000706A002840F6FF79214606F1240006D07E
:102A5000FEF708FB30B100F088F840465EE0FEF774
:102A600001FB48B9308F4844C0F30B00308700F0B9
:102A70005DFB6FF0010068E000F077F8317F00291E
:102A80001CBF307E002803D00121002071773077F1
:102A900000F04CFB0298C078022803D100F05AF8ED
:102AA00040460CE0012806F1E4090FD1484608F041
:102AB000CFFF00F04FF8B06A0028404604D008F07D
:102AC000A3FFB4F9240040E008F09EFFB06A40BBC9
:102AD00000213163307E28B10120FEF749FDFFF768
:102AE0002FFF30E0B07E00282DD108F0B5FF05465D
:102AF000F07E10B10121717606E0A068FEF764FD5A
:102B000020B1484608F0A2FF284607E0B07F002821
:102B1000284603D108F078FF042112E008F074FF82
:102B200011E0B06AC16848680278022A01BFE06813
:102B300041680A78022A06D10399487918B94FF4F6
:102B4000004100F00EF8BDF9000005B0BDE8F08FBF
:102B5000771B0000787840F0800078700021A97021
:102B6000704706F1440008F091BFBDF800002880CE
:102B70000021787840F080007870A97070472DE9C6
:102B8000F04105460C4616461F4608F07BFF80467E
:102B90002046FEF7AAFA040003D094F827000106A5
:102BA00003D4404607F08EF80CE094F8270010F0AC
:102BB0000F0F0AD0404607F085F894F8270010F070
:102BC0000F0FFAD10220002116E06168DFF84406F9
:102BD000814202D06168A9666060C5E91867404615
:102BE00007F070F84FF0FF3105F1400008F03BFCB2
:102BF0000020A866D5E91C01BDE8F081DCB500F035
:102C000017F808BFDFF80C362046FFF7FFFD002855
:102C100000D514E017E0DCB500F00AF808BFDFF8D3
:102C2000F4352046FFF799FE002800D507E00AE0BA
:102C3000DDE906670446CDE900671800704700200B
:102C40004FF00041DCBD0146204602B0BDE8D04057
:102C500002224FF0E04392E770B5054608F0FCFE13
:102C60000446B849DFF8A4650120887505F19C0089
:102C700008F0EEFE307E80B9DFF8841591F834005C
:102C800058B100F025F808D1204608F0BDFE072015
:102C9000FEF764FA08F0E0FE044600F013F80BD1EA
:102CA00005F1780008F0D4FE0120FEF76DFC307EBF
:102CB00028B10121317702E0012085F8C2002046C9
:102CC000FFF796BBB6F93800B6F93A10884270475C
:102CD000B6F93A00B6F9381088427047FFF7BCBB26
:102CE00042F00202FFF7B8BB0FF208011C2204F009
:102CF00001B80000FFFFFFFFC40900000000000052
:102D00000000000001003A01000000000000000087
:102D100038B5FEF756FCDFF8F4140546087E68B1B6
:102D2000204607F003FD044600F00CF804F0FF0411
:102D3000012C01D1812032BD022032BD00F002F809
:102D4000012032BD284608F05FBE0A46DFF8BC14F9
:102D5000CB6B984201D0032070470BE0BF190000F5
:102D6000001004400A46DFF8A414CB6B984201D04F
:102D70000320704700211046CAE700003D1E0000F6
:102D800070B5DFF88814CA6B90426FF07F0412D1DF
:102D9000087E80B108F060FE0546DFF87C0407F08D
:102DA000C5FC0646FFF7CEFF06F0FF00012802D162
:102DB0003602301670BD204670BD0000002009406C
:102DC0003FC20000FF1800002DE9F0410E461446F6
:102DD000832508F041FE032E8046DFF8307465D865
:102DE000DFE806F002071114B86A50B1B96A888C9E
:102DF00005E05348808B4FF6FF71884201D0208058
:102E000055E0802553E0387E207050E02468502142
:102E1000204604F03DFB0021DFF8E423080152F8CE
:102E20002130235004F10C0E0C234B431344491C56
:102E30001E7E0EF80060261DD3F814C046F800C0B0
:102E400001291B699C4404F1080343F800C0E5DD37
:102E5000B86AA0B1BA6AD3680801491C235049B2C4
:102E6000BA6A92F8263004F10C021354BA6AD36994
:102E7000221D1350BA6A136A04F108021350786ACB
:102E8000A8B1042913DC0A01C368A35004F10C079C
:102E900090F82630BB54271DC369BB5004F10807C6
:102EA000036ABB50491C006849B2E9E7032534E1D5
:102EB000411900002F170000E3160000151900004B
:102EC0001711000080B50846FEF70FF900B18068C1
:102ED00002BD2DE9F8430446CC480D46017E807FB3
:102EE00001431E4608BF6FF0010026D00A21298049
:102EF0006A60DFF828834046FFF734FA0746002F60
:102F00001AD4AF7008F0A8FD8146284607F00EFCE1
:102F1000054600F019F805F0FF05012D06D108EB74
:102F2000870040F8086C40F8144C05E00121384651
:102F3000FFF73AFA6FF001073846BDE8F283000068
:102F4000C425002004260020484608F05DBD2DE978
:102F5000F8430446AD480E46017E807F014390460B
:102F600008BF6FF0010037D0AC4F3846FFF7FAF9D1
:102F70000546002D2FD408F06FFD8146280200F48D
:102F8000706006434FF6FC703040A549084307F0D7
:102F9000CDFB00F0FF00012815D1F0040CD5A149AC
:102FA00001230A6805F10C0083409A430A60BD774B
:102FB000F87F40F00400F87707EB850040F8144CE8
:102FC00040F8088C05E001212846FFF7EDF96FF085
:102FD0000105FFF7B9FF2846BDE8F2830C10044055
:102FE0004FF6FC73084618408F4A002110438FE6C5
:102FF000F8B586480C46017E807F014301D101204F
:10300000F2BD8648C17F4A0707D5837F9C4204D121
:1030100001F0FB01C1770021817708F01DFD054615
:1030200008F030FD064601212046FFF7BDF94FF6B6
:10303000FC7000EA042040F0816040F0010007F0DD
:1030400075FB07467748012201680C3402FA04F444
:1030500021EA04040460304606F034FEFFF772FEF5
:1030600007F0FF07012F01D18120F2BD0220F2BD40
:10307000010002042DE9F04107460C46154608F010
:10308000EBFC624EB17E8046307E0143F07E014310
:10309000062C41D8DFE804F004070D10131F2D00A3
:1030A0002868386036E001207874F8686030F8608D
:1030B00030E0286878822DE0286830742AE028689B
:1030C00018B98020FEF754FA24E0012824D180208A
:1030D000FEF75AFA1EE0002904BF706A00280DD1DD
:1030E0002968192008F0C0FC29681A2008F0BCFCE7
:1030F00010E0002904BF706A002801D000250CE010
:10310000296806F1440008F0C5FC296806F194001E
:1031100008F0C0FC832500E0032500F007F82846EE
:10312000BDE8F08101000104D4210840404608F0C8
:103130006BBC2DE9F84F0E46814630684FEA900A85
:103140003A48824502D2307A022801D003202AE090
:1031500008F082FC2A4D804668680027814508BF38
:10316000012787F0010055F8204009F19C0008F084
:1031700095F905F1320B58B9BCB104F19C0008F087
:103180008DF928B902212046FEF781F804000DD1FF
:103190009BF80200C5F8289040F002008BF802006E
:1031A000FFF7C4FF0020BDE8F28F02240C20474344
:1031B000E81931680161317A01761D480168BAFB6E
:1031C000F1F1012998BF012109F19C0008F03CFCB4
:1031D00009F19C0008F03AFCFFF7A8FF012C06D18A
:1031E0009BF80020B5F93010E86AFFF779FD8320DD
:1031F000D9E70000FD1800009F180000B718000074
:103200008C2500200430044000093D009822002055
:10321000FDEFFF9FBB18000001000304C425002040
:1032200001000306081004400100040641420F009B
:103230009C1D00202DE9F04F0820ADF1840DADF864
:1032400010000126ADF8126004A806F067FB7A4D65
:103250009DF8140028700698A86005F1380008F061
:103260002DFA41F288320423DC49E86005F184003C
:1032700005F0F2FB00241F2006216C6006F034FBF1
:103280000820ADF85A00ADF85C008DF86A60ADF822
:10329000584031468DF86B600DF16A02ADF85E4022
:1032A0004FF47A70ADF8600040F2053001F036FA64
:1032B00040F20630022116AA01F030FA4FF44270B3
:1032C0001E2105F1650201F029FA40F207300921BB
:1032D00005F12C0201F022FA4FF4447031460DF151
:1032E0006B0201F01BFA40F2113002210DF15A027B
:1032F00001F014FA40F21230022117AA01F00EFA7E
:1033000040F2133002210DF15E0201F007FA4FF492
:103310004570022118AA01F001FAD049032006F0F5
:103320001BF90620A02106F0DFFA0720A02106F0F5
:10333000DBFA0820A02106F0D7FA0920A02106F028
:10334000D3FAA146CDF83890B0468DF86C804FF492
:1033500081608DF86D8004218DF86E900EAA8DF835
:103360006F8006F0A7FA4FF4806031461BAA06F082
:10337000A1FA40F2024031460DF16D0206F09AFAD0
:1033800040F2034031460DF16E0206F093FA40F22E
:10339000064031460DF16F0206F08CFA032006F06C
:1033A000F5FB042006F0F2FBBC48BD4A132105F0F2
:1033B000A7FF4FF0040A0820BA4EADF81C00307881
:1033C000ADF81EA08000089007A806F0A7FA002814
:1033D0000CBF0998201CCF498B46886038B107F094
:1033E00019FBCD4A0BF11400112105F089FF06F0FD
:1033F000FFFFCA4CE06020B306F0FAFF04F10C07AF
:1034000039682061D0B106F0F3FF606120B93868F7
:1034100007F043FE206912E0E06807F0FBFA20693C
:1034200007F0F8FA606907F0F5FABD4A04F12000E8
:10343000102105F065FF04E004090020084607F0AC
:103440002CFE286AA06105F1440008F037F9022734
:103450000323286152468DF87170B2498DF872309D
:1034600040468DF873200DF162078DF870004846D4
:103470000A6809793A601CAA3971414602F0F2FFE4
:10348000404641460DF1710202F0ECFF0220414638
:103490000DF1720202F0E6FF032041460DF17302C6
:1034A00002F0E0FF504605210DF1620202F0DAFF62
:1034B00005F11C00B778CBF8040037BB05F1180004
:1034C00096F801A096F803807062182007F0B2FA0F
:1034D000071C1AD004214A4607F08AFF504607F01D
:1034E000B1F9387287F809804846B87206F1480386
:1034F000FB6006F158023A6106F12001796107F09C
:10350000A9FA894A394606F045F80C2007F092FAE4
:10351000071C0BD00121042208F008F905F1240052
:10352000B86007F097FA394606F0A4FF0120102191
:1035300006F046FB0220102106F042FB7B4942F2D6
:103540002F0007F01BF8C84F794807F108018046A3
:103550001E910820ADF800000A27ADF802704FF068
:10356000FF360196684606F0D9F9002840F0A7809A
:1035700000200D900827ADF828700926ADF82A60C4
:103580000AA806F0CBF9DDF830900028CDF8349089
:1035900040F09080BDF82C004FF0010A102853D164
:1035A00028789DF82E1088424ED14E4630884FF62E
:1035B000FF7181421AD03078B02845D17078162832
:1035C0000ED17088394606F0E7FE48B9504606F03D
:1035D000BFFF0D984FF0000A686135E0B5B30000F9
:1035E000317906F1080007F0CDFB2DE07088000965
:1035F0002AD36E6946B368787788401C687096F85D
:1036000004B01F97102007F015FA0836071C1BD0CE
:103610000221152208F08AF81F98388187F80AB02D
:10362000FE6007F017FAC44A394605F0B3FF0646B4
:10363000162E09D0042E07D068694088002106F0B4
:10364000ABFE304606F084FF0D98002832D0BAF168
:10365000000F2FD0484607F038FD2BE0B5B9000029
:10366000E868064607F036FC864208BF002702D00D
:10367000876807F01EFD381C3E461BD007887F1E5A
:1036800012D07F1E13D1807818B1801E0FD1022076
:1036900000E000201DA905F065FB08E0240D0020D6
:1036A00090C1000020050020807802F047FC3046E1
:1036B00007F0E7FCE86808F040F80028D0D06888F8
:1036C000C10810D320F00400688008F099F80220A7
:1036D0000DF1750105F046FB28B9032001210DF11C
:1036E000750202F0BFFE286908F027F800287FF471
:1036F00030AF286907F0EEFB0746397A6078012978
:1037000018D0022940F014817889F96801F034FD5D
:103710000EE1C046540E00209CC10000780F00202E
:10372000C4BB00003AC20000C1B9000089B9000062
:10373000E0150020B7F80AA0FE6808280CBF4FF07B
:1037400000094FF00409484B7178307800EB0120F4
:103750001880B078F1781A4600EB01205080307B59
:10376000717B00EB0120A8F80E00B08806F1080379
:10377000A8F80600F0881E9AA8F8080019681160D9
:10378000B07B88F8100003F05FF868B398F8100079
:10379000022804D0032818BF4FF4F02001D14FF4C1
:1037A000F22010210FAA05F00EFC04F015FEBDF862
:1037B0004200ADF84E00BDF84000FF2808BF0020D1
:1037C00011A9ADF84C00096814A80160FF228DF81A
:1037D0005720BDF848008DF855009DF84A308DF807
:1037E000563001128DF8541009EB0600C27881782A
:1037F00001EB02218910A1808178C278002601EBBB
:10380000022166808B1032462270C678017A427A95
:103810001F96B44601EB02218A008678817A06EB76
:103820000C26B610B6F5005F4BDC002E49D00329FC
:1038300004D0160B45D0B2F5F83F42D8B2F5805F00
:1038400001D001293DD0BDF84C604FF6FF72B24265
:103850000CD05EB102881AB196424FF0000000DA37
:10386000012070B302E0C046E2150020012914BF18
:103870004FF400300020E061010B98F80000E18077
:10388000012805D002F0E0FFA388E18888F8000055
:10389000012804D05046022104F096FA48E001EBDA
:1038A0002320CEB25FFA80F904E0300304F0BCFAC2
:1038B000761CF6B2B145F8DA5046002104F06CFBF4
:1038C00036E0E168504607F0F9FD40082ED3504637
:1038D0000821002207F048FA0646039636B3174837
:1038E000174A102107F0B6FD08224089ADF80A20DA
:1038F000ADF808009DF84C303370BDF84C100398BB
:10390000091241709DF84E108170BDF84E1014AA36
:103910000912C1701168061D5046316002A907F0F6
:1039200057FB18B102A81B2107F02CFA07F02EFD57
:10393000384607F0A6FBD6E6F5B60000980F002043
:10394000800F00202DE9F04F0120ADF15C0DADF8A6
:103950001A000827ADF8187006A805F0DFFF00264A
:103960003546DF4C8DF854509DF81C006070A670F1
:103970000898E0614FF6FF70A082384607F05AF8C9
:103980005FEA00080CD00121122207F0CFFE07F0F9
:1039900061F815A90123D64A0091414605F018FEA9
:1039A0009DF85400DFF86C833246012320704146B5
:1039B00004F1A80005F050F804F1CC0032460223CF
:1039C000414605F049F804F1F0003246042341462F
:1039D00005F042F8042031461022E07004F148005E
:1039E00003F05AFD04F158003146102203F054FD53
:1039F0002562267266720720E67204F148021021E1
:103A0000A072022006F08EF804F158020320102163
:103A100006F088F8042004F12002014606F082F83E
:103A200019E0A078B4F84050B4F84230B4F844201B
:103A3000B4F8461006280ED1ADF84250ADF8443027
:103A4000ADF84620CC48ADF8481008F025F8012024
:103A500010A903F0DFFC0A20ADF80A00ADF80870E9
:103A60004FF0FF35039502A805F058FF002840F0FD
:103A7000E38130460C90ADF824700925ADF826504E
:103A800009A805F04BFFDDF82C900028CDF8309008
:103A900040F0D281BDF82800102840F0C181607844
:103AA0009DF82A10884240F0BB814D4628884FF689
:103AB000FF71814200F0AC812B78A23B00F0918134
:103AC0002E3B40F0AD81A878B046002800F05E8122
:103AD000801E00F03681401E012840F20B81801EBE
:103AE00000F0B980401E7FD0401E60D0083800F042
:103AF0006981801E40F06B8194F83E30A888052BC8
:103B0000ADF834004BD001208DF83E009A4807F004
:103B1000C3FF94F83E00012820D004281ED00328BB
:103B20000DD002280BD00C98C188ADF83610018951
:103B3000ADF838104189ADF83A1080892BE0B4F81F
:103B40004000B4F84250ADF83600B4F84430ADF857
:103B50003850B4F84600ADF83A301CE0B4F84000F4
:103B6000E9888842D8BF081CADF836002989B4F826
:103B700042008842D8BF081CADF838006989B4F803
:103B800044008842D8BF081CADF83A00B4F846108B
:103B9000A889814200DC0146ADF83C1001E08DF8B7
:103BA0003E60B24A0DA8122106F00DF90FE1B048AF
:103BB00007F072FF6878002840F00981E888E08209
:103BC00028892083688960836B4807F0AFFC002850
:103BD00040F0FD80A56A002D00F0F9802B68E08A96
:103BE000218B628B9847F2E0B5F804A00A2006F01A
:103BF00021FF5FEA00080AD00121152207F096FD97
:103C0000A8F808A006F026FF414606F033FCBA48A3
:103C10003146062203F040FCE68226836683A879BB
:103C20006073554807F038FF914807F035FF4FF0B3
:103C300001084FF6FF706379A0824BB9A879082874
:103C400014BF04200520A070404607F0B7FABEE07C
:103C50000320A070BBE06878002843D1A649281D46
:103C600002680A60808888800623A3706889A08221
:103C7000E889E082288A2083688A6083E878207354
:103C800094F83E00012818BF022808D11F2005F033
:103C900019FB4FF47A714143374805F049FD95F817
:103CA00003B0B5F80AA0142006F0C4FE5FEA0008CD
:103CB00000F090800121142207F038FD88F808B048
:103CC0002D1DC8F80C50A8F810A0042088F8120088
:103CD00006F0C0FE814A414605F05CFC7AE0C04631
:103CE00020050020687831286AD12671042022E05E
:103CF0001FB700006878002862D1A878618AA2788E
:103D0000032813D02079657931B9012814BF667171
:103D1000267107E0BDB10000054303D0724805F0ED
:103D200007FDA278072AE1D1062004E0062A06D082
:103D3000207910B90320A0704CE00220FBE7072097
:103D4000F9E7687800283BD1EB78A078E179ABB946
:103D5000022818D0072816D0062802D16179012937
:103D600011D103280FD0604807F0E0FB58B90120BB
:103D700007F024FA07E0C046EC0500205F4A404601
:103D800004F050FC68706878D0B920E06878B8B961
:103D9000564A0220102105F0DFFE554A032010216B
:103DA00005F0DAFE5648ED1C29680160AB88838077
:103DB000544A01252846A179A57004F033FC48B186
:103DC000A77007E0A888464A102105F0E3FFB8F184
:103DD000010F25D1606A18B3016809B3A07888473C
:103DE0001EE0687913281BD12889012808D1A07BFF
:103DF000022805D11E4807F04FFE04F0E5FD0FE054
:103E0000052005F05FFA0146194805F091FC07E02E
:103E10006888C00B04D3374A0420014605F09CFE95
:103E20000C9848B1ADF810700320ADF81200CDF831
:103E3000149004A805F072FD208A65792179420862
:103E400031D320F0010055EA010320822BD08DB937
:103E50002D49207A8DF84A00657A8DF84B500A6812
:103E600013AB1A608988998007E0C046BBB900008F
:103E70001006002003208DF84A00A07AE57A194A3E
:103E80008DF8520006218DF853500DF14A0004F0D0
:103E9000ADFF616A30B1A77021B1086810B109683F
:103EA00038468847208A810807D3184920F0020045
:103EB0002082304603F0AEFA208AC108FFF4CBAD71
:103EC00020F00400A57B2082681E3FF4AAAD401EAE
:103ED0007FF4C1AD04F078FDBDE5C046E7B6000053
:103EE000DFB90000D3B90000C80500206805002034
:103EF000780500204005002058050020A705002077
:103F00004C05002088050020520500205E05002099
:103F10002DE9FE4FE54980460122A1F13000026003
:103F2000DF480768002FFCD0DE4ADF4EC027E0489C
:103F3000E04B17603268920808D2324652F8042CDF
:103F400003F14104120C42F0F00222704FF0000A1B
:103F50008346C1F800A0DFF864C3DBF80810D64D33
:103F60000191880E43D2480E41D3802018744FF639
:103F7000D802A3F8512018702868C0F30464162CE6
:103F8000A8BF203C1F460F3F387800F01F001628BE
:103F9000A8BF2038844223D0624602F1980EDA4A44
:103FA000CEF800A0261A022E05DC16F1020FB8BFCB
:103FB0006FF0010600E002263018166800F01F06B8
:103FC000844246F4F856A7F866604FF00106166082
:103FD000E8D11068374617601068CEF800601068A6
:103FE00028460068C0F30420162808DB06E0A5F187
:103FF000D0000068C0F30460162800DB203800EB16
:104000002170401C162805DA10F10A0FB8BF6FF0B6
:10401000090000E01520DE4F00F01F0040F4F850CA
:10402000A3F85900386880083ABFEA48C0F800A0F1
:1040300041F04061019E6246A5F13804C80E8F0E22
:1040400080F0010000F00100106087F0010000F036
:10405000010090602068C0F38367C0F38F21B00C2B
:1040600023D2304640F3072000280BD54242504669
:10407000490805D17F0806BF0127391C4FF6FF719B
:10408000521EF5D1002810DD4FF6FF72490041F0B5
:1040900001018A4207D27F0047F001070F2F92BF2C
:1040A00001210F27111C401EF0D141EA07411820C1
:1040B00005F0B6FC2068D24E2768C94CA6F1040969
:1040C000C0F3870107F0030041EA0021D9F804009A
:1040D00040F2FF3253468FB22C21466800972746A4
:1040E000A7F14000B0470C3D2868C0F30D011C202B
:1040F00005F096FCB84955F8080C014000F07C40EA
:104100000143142005F08CFC55F80C1C01F47C00D4
:104110000904090C0143102005F082FC624955F89E
:10412000042C0968C2F30350C2F30345490813D2B3
:10413000DBF800100B0510EB237003D41028A8BF88
:104140000F2000E05046090415EB217503D4102D13
:10415000A8BF0F2500E0554645EA001502F47F4050
:1041600002F0FF01B8F1220F40EA054041EA0001E8
:1041700024BF02F0804211430C2005F051FC974D02
:10418000B8F1220F32BF01202868C0F30070B8F1E7
:10419000220F4FEA400040F0200084F8090126BFBA
:1041A0002868C0F3407001208E4EB8F1200F40F017
:1041B000100084F8090138BF514606D33168C80C95
:1041C00000F44070C1F384510143282005F028FC1D
:1041D000B8F1200F26BF3068C0F301505046B8F147
:1041E000220F4FEA400040F0600084F80C0126BF27
:1041F0002868C0F3C0605046B8F1220F4FEAC000F3
:1042000040F0800084F8010126BF2868C0F34550C3
:104210005046B8F1200F4FEA800040F47C40A4F8EB
:104220009C0138BF70490AD3306801038A15920592
:1042300001F47C1100F00F00114341EA0031082025
:1042400005F0EEFB4FF48000A5F1D0012060674A35
:10425000886D40F21E236FF31F40834216D9086811
:10426000030E13F00F0F03F00F01C0F3034018BF4C
:10427000491E072805D006280EBF0720801C00F025
:104280000F0041EA0011A2F108000170DDF804C03E
:10429000CCF381477F1E13D07F1E3BD036E0C04653
:1042A0009402224300600C40B03F0050401009408F
:1042B000AC3F0050156208408813005000002043B6
:1042C00028460068810C21D24FF480412160D2F849
:1042D0000210430AC0F3033703F0800321F08F017B
:1042E0000B4347EA0301C2F80210D2F80130060A74
:1042F00066F30303C2F80130116800F0E70721F00C
:10430000E70147EA010004E02C2009404FF000409B
:10431000224610603B480068C0F3C0070FB9402038
:10432000A0624FF40070206428684027C0F3C140A9
:1043300040F0300084F8C800CCF3815050B3401EE8
:1043400003D0401E1FD002211EE0012006F0A8F875
:1043500006460420314603F007FD042006F0A0F8CD
:104360008642FAD12248066826F07F4005F020FEFA
:10437000D9F81400036807214FF06022300E9847E7
:104380004FF4806020600321042003F0EDFC08E07E
:10439000000009400420012103F0E6FC154805F067
:1043A00007FE203D2868144947F6180600F03F0034
:1043B00084F8CB0F144B0E80D9F800201868D16810
:1043C0000220884711480D4D076001212960BDE892
:1043D000FE8FC04694042A43FCFCFC008C13005062
:1043E00040A00C409813005000803F400A600840F5
:1043F000A83F0050BD37860070B00C409404604266
:10440000A4010010B03F00502C20094000600C4077
:10441000BA482DE9F84F0025B94CB749056094F822
:10442000E200002800F06381012800F02F81B54EE2
:1044300002283CD0032840F05A8151F8250CD4F8CA
:10444000B8100029A0F5C060C4F8D400B8BF494234
:104450000028B8BF4042814226DA4FF08057D7F893
:10446000A4014568B4F8BC0030214FF47F42082312
:1044700000903046A847D7F8A4014568B4F8C000BA
:1044800004214FF4F802122300903046A847D7F8D1
:10449000A401B4F8D070456820214FF440620A238B
:1044A00030460097A847012584F8D8501AE151F802
:1044B000258C07F07BF92F4600B901273946924F2A
:1044C00038680028FCD0B146012609F10409D9F862
:1044D0002CA03E6009B107F06FF9CAF30720C4F8B9
:1044E000BC0007F063F9AA4600B9B2463B68002B4E
:1044F000FCD0D9F800B0BAF1000F3E6001D007F04F
:104500005BF9CBF38440C4F8C00007F04FF9AA462A
:1045100000B9B2463B68002BFCD0D9F81C90BAF128
:10452000000F3E6001D007F047F9C9F38120C4F8BD
:10453000D000B8F5C061C4F8B81000F09C8094F8C1
:10454000D80068B9C4F8D410D4F8C000C4F8C800C2
:10455000D4F8BC70C4F8C470D4F8D030C4F8CC30EF
:10456000D4F8D410D4F8BC30002954BF02206FF026
:10457000010004F1C802176801EB41014018411025
:1045800000EB917107EBA1001060D4F8C810C4F8DB
:10459000C43000291CDD1E293CDDD4F8CC0030B924
:1045A0003429B4BF15391E21C4F8C81025E02A29C2
:1045B000BABFD4F8C8000B381E20C4F8C800D4F81D
:1045C000C4003F28B4BF401C3F20C4F8C4001FE013
:1045D000D4F8CC00032812D011F10B0FC6BFD4F8C9
:1045E000C8000B30301CC4F8C800D4F8C400002840
:1045F000C4BF401E051CC4F8C450032508E011F1D7
:10460000150FC6BFD4F8C8001530301CC4F8C80058
:10461000C4F8CC504FF08057D7F8A401B4F8C43098
:1046200030214FF47F424568364800930823A8475D
:10463000D7F8A40104214FF4003211234568314812
:104640000096A847B4F8C860D7F8A40104214FF435
:10465000F802122345682B480096A847D7F8A40112
:1046600020214FF440620A23B4F8CC604568254805
:104670000096A84701E084F8D85040F2FF5040452A
:1046800002D8801C40452DD208202EE051F8251C70
:104690001E4F4BF2F5204843060A3868C0F38140AC
:1046A00001280AD106F02EF804F084FE07F08AF8FB
:1046B0003111C010484306EBE03694F8E50030B9FC
:1046C0001348006820F07F408019460801E084F814
:1046D000E5501048310C0660012741600E4D87609F
:1046E000287808B90B2000E0052084F8E40000F0E9
:1046F00019FEBDE8F88FC0462D400C402C500C40F0
:104700009810002000A00C4000800C40B43F0050E6
:10471000102009403C600C4072C10000F8B5A0F2C6
:10472000013517460E46022D40F214818A4A8B4904
:104730008B4B2D1F0F2D04D9143D4AD0AD1E1CD01C
:1047400011E0DFE815F0C300BC00F400E400B300A2
:10475000AB000701A2009A00100010009200880030
:1047600079006F006300282880F2F480022E40F068
:10477000F180398805F0B8F8F8BD012E40F0EA80E4
:1047800015462879012800F0E58051793878507174
:1047900081B9002800F0DE809078012800F0A9801F
:1047A000042800F0A680062800F0A380052800F069
:1047B000A080F8BD3878002840F0CC80907803289D
:1047C00000F0A280072800F09F80052800F09C8060
:1047D000F8BD012E40F0BE803878012840F0BA8044
:1047E000154605F1F00006F0A1FE002840F0B28069
:1047F0002C46002004F13E0102F00CFE002840F09F
:10480000A98004F1CC0007F047F9F8BD022E40F072
:10481000A18038880A28C0F29D80B0F5486F00F367
:10482000998015E0022E40F095803888B0F5FA7F27
:1048300080F290800880F8BD022E40F08B8038888E
:104840000628C0F28780B0F5486F00F383801946D0
:10485000891C0D4638E0022E7CD13888062879DB89
:10486000B0F5486F76DC1946F3E7012E72D138783F
:1048700006286FDA891F0D460EE0012E6AD13878BE
:10488000042867DA15460B3506E0012E62D1387828
:1048900008285FDA15460A352870F8BD012E59D16F
:1048A0003878042856DA1546093506E0012E51D12C
:1048B000387804284EDC154608352946DBE7022EF9
:1048C00048D13888154612352946B3E7012E41D123
:1048D0001546687901283DD011793878107161B991
:1048E000002837D09078012803D0042818BF052865
:1048F00030D1012006F062FCF8BD387850BB9078CA
:10490000022818BF052825D106F0D0FDF8BD1546B0
:1049100005F1870400211F22204602F0BDFD394623
:104920003246204602F0E6F90020EE710EE0154610
:1049300005F1680400211F22204602F0ADFD394632
:104940003246204602F0D6F90120AE7131462246A9
:1049500003F068FEF8BDC046200500206405002075
:10496000600500202DE9F047DFF80CA20746AAF108
:104970003500DFF8F8810068800880F0E78005F0F6
:10498000C1FE814908310B6800261C17641C990D73
:104990000AD2C0F13E0110F10A0F4FEAE101D8BF7F
:1049A00008218C42B8BF0C1CDFF8C4C1990E0FD28D
:1049B000590E0DD36246143A1168C1F30421162929
:1049C000A8BF20391268C2F30462162A0EDB0CE07D
:1049D000634AD2F87C11C1F304611629A8BF2039BB
:1049E0001268C2F30442162A00DB203A611891468D
:1049F000162905DA11F10A0FB8BF6FF0090100E0BE
:104A00001521584C584D01F01F0242F4F8522280F3
:104A10002A6812F0030F18BF0126D20828BF46F0FB
:104A200002060FB146F00406424692F90740041B05
:104A3000052C04DA9479B44208BF918866D00F2817
:104A4000A0F10F0827DB08EB0014A4F1F0084FEAEF
:104A5000282EBEF1070F88BF4FF0070E7546062DB2
:104A600088BF06255CF82570042404EB85046546A0
:104A70002C59E41B04F0FF05F70824BFC4F30727F3
:104A80003D44B70824BFC4F307473D44770828BF17
:104A900005EB146501E00025AE465CF82EC0F70872
:104AA0000CF0FF0424BFCCF307273C44B70824BF15
:104AB000CCF307473C44770828BF04EB1C64ADB235
:104AC000A9EB0101A8EB0E277D43002905F1800524
:104AD00004EB1524D8BF012103F0FF0334254D4317
:104AE000A9B259434FF6FF73B1FBF4F18B4238BFC3
:104AF000191C802889B2918005DA10F1800FB8BFA7
:104B00006FF07F0000E07F20D07196711948006837
:104B10001F2910604FF0000008D340F2FF128A42B4
:104B200006D24908401C8A42FBD301E01F21918034
:104B3000124F0F39090940EAC10047EA0001CAF8DB
:104B4000FB1F0026CAF8FF6FBDE8F0870C490D4F28
:104B5000424608200F60921D1070BDE8F087C046E5
:104B60003C1100506E620840242208403826002084
:104B70009C130050082009403500094000E7A4803C
:104B800030100940FDFDA400AC3F005001282DE984
:104B9000FE4F40F0EB80DFF80CB2DBF8DC000128C0
:104BA00040F0E1800220CBF8DC0005F093FF01200B
:104BB00004F03EF95FEA000805D00120CBF8DC00E4
:104BC00005F098FFD4E006F05DFF6B4902900020ED
:104BD0000860012005F064FC012818BF002003D103
:104BE000002002F0FDFF0120644900900020644F86
:104BF00008603868112006F0F7FD00280CBF00247B
:104C00000124102006F0F0FD08B144F002040F204A
:104C100006F0EAFD08B144F004040B2006F0E4FDC0
:104C200028B158480068584E016B308888470A20E0
:104C300006F0DAFD002600B101264FF0805A0AF591
:104C4000DC75301C04D02868504E016B30888847D2
:104C50004F48012606602868816944F02000884793
:104C60004C48066006F0BAFD00F0010101914008D1
:104C700014D2494806F014FD8146B9F1040FF8D06A
:104C8000B9F1010F05D1DAF8D80142684248032191
:104C900090474249086820F0030008600020FFF7B1
:104CA00061FE2B683868986B8047019801280DD009
:104CB000B9F1010F05D1DAF8D8014268364831461A
:104CC00090473649086840F0030008602B480660AA
:104CD00028684169204688470B2006F085FD20B1F1
:104CE0002868294BC16A188888470A2006F07CFD8D
:104CF00020B12868254BC16A1888884724480322B8
:104D000006602449CBF8DC2000230B602868416B47
:104D1000204688470128F9D13868042004F088F833
:104D2000044615481E490660386808688009FCD3A7
:104D30000098012802D1304602F052FF06F03CFDF7
:104D4000082004F075F807460298CBF8DC6004F000
:104D5000B9FF03F0F3F805F0CDFE57EA040018BFE1
:104D60004FF0FF3804E06FF0040801E06FF0010835
:104D70004046BDE8FE8FC0460C4009400002224379
:104D80002C200940B80100103EBC00003ABC0000D5
:104D9000282008608001044300400340242208408A
:104DA00014100940981000202DE9F0411C461546CA
:104DB0008C4208BF854282BF00230022E5E0002C20
:104DC00008BF002D0AD100290EBF00286FF0000097
:104DD0006FF0000100F0E1F8BDE8F0815FF000083D
:104DE0005FF0000E002C08BF8D429CBF2C1C0025DC
:104DF000070C47EA01470E0CB44208BFBD429EBFF4
:104E00005FEA044444EA15445FEA0545070A47EAB5
:104E100001670E0AB44208BFBD429EBF5FEA042488
:104E200044EA15645FEA0525470847EAC1774E085A
:104E3000B44208BFBD4200F29380870847EA8177F9
:104E40008E08B44208BFBD427CD8C70847EA417704
:104E5000CE08B44208BFBD4266D8070947EA0177C9
:104E60000E09B44208BFBD4250D8470947EAC1679E
:104E70004E09B44208BFBD423AD8870947EA816764
:104E80008E09B44208BFBD4224D8C70947EA41672A
:104E9000CE09B44208BFBD420DD8E60146EA5566C8
:104EA000EF01B14208BFB84201D3C01BB14158EB7A
:104EB00008085EEB0E0EA60146EA95664FEA8517D6
:104EC000B14208BFB84201D3C01BB14158EB08083A
:104ED0004EEB0E0E660146EAD5666F01B14208BF81
:104EE000B84201D3C01BB14158EB08084EEB0E0E7F
:104EF000260146EA15762F01B14208BFB84201D318
:104F0000C01BB14158EB08085EEB0E0EE60046EA06
:104F10005576EF00B14208BFB84201D3C01BB14182
:104F200058EB08084EEB0E0EA60046EA9576AF0049
:104F3000B14208BFB84201D3C01BB14158EB0808C9
:104F40004EEB0E0E660046EAD5766F00B14208BF02
:104F5000B84201D3C01BB14158EB08085EEB0E0EFE
:104F6000A14208BFA84201D3401BA14158EB080849
:104F70005EEB0E0EA34208BFAA423EBF2D0A45EAD1
:104F80000465240A89D3734642461E4617460B46DB
:104F9000024631463846BDE8F08170472DE9FE4FA4
:104FA00083460D46DBF80800DBF8044000902868D3
:104FB000002800F0D28006F04FFDD4F8881021B10F
:104FC00006F022FD03202874C7E001212974C4F8EB
:104FD000885006F019FD94F8A40038B194F88D209B
:104FE0005F49D4F89C00114304F068FD6F6806F037
:104FF00033FD064694F8D80060B917F0704F03D11E
:1050000017B1042005F004F8022005F001F8012092
:1050100084F8D800304606F0F7FC0098D0F800A0DD
:10502000DAF8040040F00200CAF80400DBF804607B
:10503000DBF80830D5F800C01F6896F88C101FFA0E
:105040008CF0B7F1804F00FA01F080B2019014BFEC
:10505000444F454F4548A96849B996F88C104FEA26
:10506000810900EB09018A6906F1A6010AE096F8B8
:105070008C20DDF804E04FEA820900EB0902126996
:105080007144491EBA6080467960186800F1080EC4
:10509000C7F800E0B9684FEA0C1243F6F07CA2F1C1
:1050A00010000CEA00000143B9601A68B2F1804FA9
:1050B00014BF2F492F496F68B7B9D88908EB090782
:1050C000A6F8A600B86906F1A6028860009F0A60EB
:1050D000D7F800A01A682F6802F1080E3D01103DB4
:1050E000674607EA050007E008EB0905AD688D6033
:1050F000019DED196D1E0D60C1F804E08D68284317
:105100008860D6F8A07058691969084379680968F9
:105110008862506A40F003005062DAF8140040F0F0
:105120000100CAF81400207830B9616804F16C00FD
:10513000054606F098F910B90120BDE8FE8FD4F8B5
:105140008800017C012904BF03210174584600F046
:105150006DFF2846002106F086F90020BDE8FE8F8D
:1051600000000680000500203004002028BD00005B
:1051700010050020400400202DE9F04FADF1140D82
:105180004A78664D0390087800EB0220ADF80000E5
:105190006A88BDF80000904240F0B080BDF8000081
:1051A000AA79000100EB02308A1C102102F0D4FA27
:1051B0006888AB88401C81B269808B4240F09A803D
:1051C0005748801C01884FF6FF7702918F4200F00C
:1051D0008780E8880F1C00F083805FFA93F2190142
:1051E00087180024C6B25FFA87FA01F4704304946A
:1051F000B245A1EB03011FFA81FB28DBAAEB0601F4
:1052000001F10108B0420CBF04240024B245D8BF0C
:10521000A34516DD04EB063004210DF1020203F074
:10522000D2FE04270DF1020919F8011B049804F0BD
:1052300037FF7F1E0490F7D1241DA4B2B4F5805F20
:10524000E4DBE888761CB8F10108F6B2DAD10498FC
:10525000002104F025FF002104F022FF0299814281
:105260003ED12C4948800398002102F0ADFD2C4C22
:10527000217C012908D0022908BF042005D0002084
:10528000032908BF012000E002202A78012940EA12
:10529000020028700CBF4FF4F0264FF4F22630467F
:1052A00002F0C2FD1B4AFF2010216074304602F05C
:1052B00053FAA87A2978401EA872C0B2A0B948084B
:1052C00005D3AB690399032000229847297811F090
:1052D000060F09D01049086840F00040086003E05C
:1052E0000398012102F070FD00242C7006F04EF8A6
:1052F0006C800CE0039802F04FFE08E0002068800C
:10530000287006F043F80398032102F05DFD05B014
:10531000BDE8F08FE215002004000940780F00205E
:10532000E01500202DE9F843614C5A4D5A4EDFF844
:1053300070815E4F94F8E4100846401E0B2864D834
:10534000DFE800F07B2C4306234306234306766404
:10535000042907D001220A2945F8212C14BF022074
:10536000032004E0202045F8210C0120024684F8A7
:10537000E200002045F8390C0827C5F8FF7FC5F882
:10538000F37F45F8392CBDE8F883052914BF0920BF
:105390000620002784F8E400376075E094F8E17097
:1053A000383D0120002FC5F81B0004BF0620002156
:1053B00002D00021F160032084F8E400032045F8C6
:1053C000010C3160306880085ED294F8E4103348F4
:1053D000012703290ED000684568002160220523BB
:1053E00000914046A84794F8E400062814BF0A201C
:1053F0000720CFE7006845680021602205230220CE
:1054000000904046A8470420C4E7FEE72548264F01
:105410000026012506600E203D6001F0B7F902204C
:1054200004F066FB84F8E45084F8E360BDE8F88398
:10543000002038600C25786024E04FF08059D9F8BE
:10544000A0010168202088472C3D0F2045F8010C61
:1054500041F61D56C5F80360D9F8A401466800213D
:105460004FF4C0720723022540460095B047D9F893
:10547000A401C66800214FF4C07207234046B0471C
:105480000120386084F8E45004F1780006F0DEFA78
:10549000BDE8F88339400C4038600C40A40100108E
:1054A00000A00C402C500C4004800C4034600C4098
:1054B000981000202DE9F04F8146ADF11C0D00F051
:1054C0006BF905F06DFC0026012804D105F02EFED5
:1054D000022808BF012651490868C0F381500128FD
:1054E00006D151F80C0C0127010E07FA01F0064312
:1054F0004B48007805F0B8F94A4D2C46286038B181
:10550000FF2204F1400107467F1E01F8012BFBD169
:10551000D9F800104FF0000801F0FF02FE2A1CD05D
:10552000CC4601F0FF0342460127FF2B0ED09842E4
:1055300003D907FA03F31E4201D002206AE001F00A
:10554000FF0143EA0808611881F840205CF8041F55
:10555000521C01F0FF03FE2BE7D1092001F0D0F926
:10556000C4F8049004F12400012104F0DBFF236857
:105570003BB3002794354FF0040BBA460120B840E6
:10558000064218D118EA000F04BF07F0FF0141F4EA
:10559000C04104D0E01990F8400059F8201022488A
:1055A00000F0B4FDF8B24FF0FF3105F007FC2368BE
:1055B000C5F800A001E0C5F800B07F1C2D1D9F427A
:1055C000DCD304A805F082FF184D194A2878102171
:1055D00004AB059004F1080003F036FD684605F0C1
:1055E0009DFF00276A46686803971249029004F1FC
:1055F000600003F075FF104951F80D0C012620F4EE
:10560000F85040F4005041F80D0C0C4DC1F8FF6FFC
:1056100038462E6007B0BDE8F08FC046B43F00505A
:1056200044260020B4230020007FC767DCC10000AF
:10563000D9AD0000DD8C00000D30094008000940A4
:10564000B0B5456884684F48297BADF1180D012934
:1056500016D0217E627E4C4B2F7E0143009143EA9F
:1056600002010191494937F0010718BF081CA27EC9
:105670001043029095F88D000322FF2811D00DE011
:10568000677E217E3843A37E019041F00041009166
:1056900043F000403E49029095F88D0001430422FA
:1056A0000391FE204DF82200694605F1900001F0BB
:1056B0006FFBC5F89C00002808BF00205FD0287B46
:1056C000344951F8200001282BD02068B0F1804FD8
:1056D00014BF22220A22217ED5F89C0004F00CFF80
:1056E0002068B0F1804F14BF21220922617ED5F8D5
:1056F0009C0004F001FF2068B0F1804F14BF242209
:105700000C22A17ED5F89C0004F0F6FE95F88D10D1
:10571000FF2933D02068B0F1804F14BF23220B2221
:1057200028E02068B0F1804F14BF21220922217E99
:10573000D5F89C0004F0E0FE2068B0F1804F14BF63
:1057400022220A22617ED5F89C0004F0D5FE206852
:10575000B0F1804F14BF24220C22A17ED5F89C000A
:1057600004F0CAFE2068B0F1804F14BF23220B2240
:1057700095F88D10D5F89C0004F0BEFE012006B00F
:10578000B0BDC046000480A0004000800004C0A05E
:105790000020008028BD00002DE9FF47484D95F806
:1057A000E700002877D101243D4F85F8E740387B9A
:1057B00085F8E6007E68C5F8106101A806F0F4F8E7
:1057C000002605F10C00029601AB8DF80460354906
:1057D0000396324603F0D4F8334905F1300001ABAB
:1057E000324603F0CDF8314905F1540001AB814652
:1057F000324603F0C5F8B96820468847DFF8BC8018
:105800002B4808F104037A7B00781868C0F3815AAA
:1058100022B1BAF1030F04D185F8E140BAF1030FC8
:105820001ED0BAF1020F1BD0BAF1010F2CD14FF0EC
:105830008059D9F8A4011F4F456831464FF04052B6
:105840001C23032000903846A847D9F8A40131460C
:105850004FF400720923456800943846A84713E0C6
:10586000022004F0D5FBBAF1030F0CBF4FF47A719C
:1058700042F2107110480068B1FBF0F1484606F0A2
:10588000E3F8484606F0E2F840460068C00802D255
:10589000304604F0BDFB00200090BDE8FF87C04605
:1058A00064C10000B36B00009172000085710000BC
:1058B0004426002000A00C409C1D0020B03F00505A
:1058C000981000202DE9F04304466568A7680E464D
:1058D000ADF1140D06F0C0F895F8D910012903D1E7
:1058E00006F092F8002072E04FF0010985F8D99097
:1058F00006F08AF84FF00008C5F888803069286102
:1059000070696861307E2876307B28733078287023
:10591000706885F8A480686070694146092828BFCE
:10592000494685F88C10387B00F0EAFF204602F0EB
:10593000CFFCF87E85F88D002046FFF781FE50B938
:10594000387B00F023FF06F087F885F8D98006F051
:105950005BF844463AE0684605F0B8FD0094787973
:105960001C4A019039796B4605F11C0003F06CFB71
:10597000684605F0D3FD00941749B8686A4602905E
:1059800005F1380003F0ACFD287830B905F16C0062
:10599000414604F0C7FD114800E0B068A86002F07D
:1059A00085FBC5F8A000287B012808D1D5F89C000C
:1059B0000B4905F00DFFD5F89C0000B18460094A41
:1059C00005F1C4000421234604F0C4FE204605B0BE
:1059D000BDE8F0830D6B0000C586000069B90000CA
:1059E000218D000025B800002DE9F04F0C464549F7
:1059F000CA7AADF12C0D84460592487B09900D7949
:105A000000958A7A488B4B8A0E7B91F805A091F815
:105A100002800492B1F846E008904A7A088B03921B
:105A2000CD7807900A7AC88A02920F6A0690CA79DE
:105A3000888A01928A79E146A9F54079B9F11D0F6A
:105A400010D8DFE809F05B5553514F4D4B494643A1
:105A5000413F3C3A380F34312E2B2923201E1C0F96
:105A600019181716BCF1280F49DA604603F02AFC12
:105A700021E0099EB246D046CDF814801DE008987A
:105A8000079007980690DDF818E005E038310868BF
:105A900020608888A08032E070460AE0B1F84400B7
:105AA00009E0B1F8420004E0B1F8400001E091F8EB
:105AB0003E00034612E0208021E0059804900498FF
:105AC000039001E03231E2E70398029002980090DF
:105AD00006E0019A87310DE068310BE01846EAE7ED
:105AE000009D0BE02C31D2E7276008E0583100E040
:105AF00048311022204601F0FDF800E025700BB07F
:105B0000BDE8F08F20050020364AF8B5101D036867
:105B1000B3F1FF3F08BF002305F042F9012860D12F
:105B2000314E10683268070F02F0FF02802A28BF4A
:105B3000002205F035F94FF0FF31012805D1381C5E
:105B40004FD0801E04BF143251B2142949DB2748BC
:105B50002749002501270560264E0F60264C376037
:105B600020680028FCD1274A161D2449244F30689C
:105B700020F0030001433868C0080CD2106810F010
:105B8000030F0AD041F003003060106800F00300FA
:105B90000328FAD101E041F001011B48316000689F
:105BA00020B11A4800681846FEF7B2F9184819499A
:105BB0000560194F0A686FF35B4247EA020008600C
:105BC00016490868C0F30130012806D10A68144854
:105BD000104040F400320A60086020680028FCD1C0
:105BE000F8BDFEE718130050A01000508404604276
:105BF0005C600C40082204430C0068420400002052
:105C0000B03F005000400340800128430001204382
:105C10008C2108404820034000003901040009405D
:105C2000FFFFFCFC2DE9F0413B483A4908603B4846
